:020000040800F2
:1000000010120020DD010008BD13000807130008CE
:10001000B91300087D020008311800080000000034
:100020000000000000000000000000004501000882
:10003000810200080000000089010008791400080E
:10004000F7010008F7010008F7010008F7010008B0
:10005000F7010008F7010008F7010008F7010008A0
:10006000F7010008F7010008F7010008F701000890
:10007000F7010008F7010008F7010008F701000880
:10008000F7010008F7010008F7010008F701000870
:10009000F7010008F7010008F7010008F701000860
:1000A000F7010008F7010008F7010008F701000850
:1000B000F7010008F7010008F7010008F701000840
:1000C000F7010008F7010008F7010008F701000830
:1000D000F7010008F7010008F7010008F701000820
:1000E000F7010008F7010008F7010008F701000810
:1000F000F7010008F7010008F7010008F701000800
:10010000F7010008F7010008F7010008F7010008EF
:10011000F7010008F701000855150008F70100086D
:10012000F7010008F7010008F7010008F7010008CF
:10013000DFF80CD000F090F8004800475518000890
:1001400010120020224B19680868B0E8F00F80F305
:100150000988BFF36F8F4FF0000080F311884EF0D5
:100160000D0E70470000000006480068006880F32C
:10017000088862B661B6BFF34F8FBFF36F8F00DFA1
:1001800000BF00BF08ED00E0EFF30980BFF36F8F01
:100190000F4B1A6820E9F00F106008B54FF05000BF
:1001A00080F31188BFF34F8FBFF36F8F01F0F8FF1B
:1001B0004FF0000080F31188BDE808401968086816
:1001C000B0E8F00F80F30988BFF36F8F704700BF6E
:1001D00040000020EFF3058070470000064880478C
:1001E00006480047FEE7FEE7FEE7FEE7FEE7FEE71C
:1001F000FEE7FEE7FEE7FEE7FD1400083101000818
:1002000040EA01039B0703D009E008C9121F08C098
:10021000042AFAD203E011F8013B00F8013B521E18
:10022000F9D27047D2B201E000F8012B491EFBD28F
:1002300070470022F6E710B513460A4604461946F1
:10024000FFF7F0FF204610BD421C10F8011B0029EB
:10025000FBD1801A70470000064C074D06E0E068AD
:1002600040F0010394E8070098471034AC42F6D3FD
:10027000FFF762FFC8250008E825000800BFFEE779
:100280007047704770B5044600F0BAF90646254637
:10029000681C10B104480078054400BF00F0B0F9B4
:1002A000801BA842FAD370BD380000202DE9F84722
:1002B00002460024002000258446002700237BE11D
:1002C0004FF0010808FA03F4D1F8008008EA0400AE
:1002D000A0427DD1DFF8ECA2D1F80480A8EB0A0996
:1002E000D0453AD014DCB8F1030F50D009DCB8F196
:1002F000000F31D0B8F1010F1CD0B8F1020F49D175
:1003000020E0B8F1110F18D0B8F1120F42D11EE061
:10031000B9F5881F25D006DCB9F5803F20D0B9F5A6
:10032000801F37D11AE0B9F5001F18D0B9F5041FA6
:1003300030D117E0D1F80CC02DE0D1F80C8008F1D5
:10034000040C28E0D1F80C8008F1080C23E0D1F867
:100350000C8008F10C0C1EE000BF00BF00BF00BF06
:1003600000BF00BFD1F80880B8F1000F02D14FF0F4
:10037000040C0BE0D1F80880B8F1010F03D14FF065
:10038000080C146102E04FF0080C546103E04FF0D8
:10039000000C00E000BF00BFFF2801D8904601E03C
:1003A00002F104084646FF2802D84FEA830803E01A
:1003B000A3F108084FEA88084746D6F800804FF0B6
:1003C0000F0909FA07F928EA09080CFA07F900E009
:1003D0007AE048EA0908C6F80080D1F8048008F0FD
:1003E0008058B8F1805F6FD100BFDFF8DC81D8F8AA
:1003F000188048F00108DFF8D091C9F81880C84685
:10040000D8F8188008F00108CDF8008000BF00BFC0
:100410004FEAB9384FEA930958F829504FEA8378E0
:100420004FEA18794FF00F0808FA09F825EA08058D
:10043000DFF89881424502D14FF0000824E0DFF850
:100440009081424502D14FF001081DE0DFF8848120
:10045000424502D14FF0020816E0DFF87C814245A8
:1004600002D14FF003080FE0DFF87081424502D15E
:100470004FF0040808E0DFF86881424502D14FF0F0
:10048000050801E04FF006084FEA83794FEA197931
:1004900008FA09F848EA0505DFF848814FEA9309A8
:1004A00048F82950D1F8048008F48038B8F5803F26
:1004B0000BD1DFF83481D8F8008048EA0008DFF873
:1004C0002891C9F800800AE075E0DFF81C81D8F8AF
:1004D000008028EA0008DFF81091C9F80080D1F800
:1004E000048008F40038B8F5003F0ED1DFF8F8803A
:1004F00008F10408D8F8008048EA0008DFF8E8901E
:1005000009F10409C9F800800DE0DFF8DC8008F18A
:100510000408D8F8008028EA0008DFF8CC9009F138
:100520000409C9F80080D1F8048008F48018B8F5EF
:10053000801F0ED1DFF8B08008F10808D8F80080DD
:1005400048EA0008DFF8A09009F10809C9F800801E
:100550000DE0DFF8948008F10808D8F8008028EA58
:100560000008DFF8849009F10809C9F80080D1F883
:10057000048008F40018B8F5001F0ED1DFF8688079
:1005800008F10C08D8F8008048EA0008DFF8589015
:1005900009F10C09C9F800800DE0DFF84C8008F182
:1005A0000C08D8F8008028EA0008DFF83C9009F130
:1005B0000C09C9F800805B1C102BFFF481AEBDE86C
:1005C000F8870000000011100010024000080140F0
:1005D000000C0140001001400014014000180140CF
:1005E000001C01400800014000040140C2684A406C
:1005F000C26070470AB1016101E00B0403617047FA
:10060000014800687047000030000020034800687F
:100610000349097808440149086070473000002008
:100620003800002010B50848006840F01000064966
:100630000860032000F0CAF8002000F007F800F07E
:1006400049F8002010BD00000020024070B588B0BD
:1006500004460025002600222146362000F077F8C7
:10066000362000F067F800BF1648C06940F010005F
:100670001449C8610846C06900F01000019000BF2D
:1006800000BF02A903A800F09DF900F0C3F90546D8
:100690000D48B5FBF0F0461E0C480D49086040F2CD
:1006A000E7310B48C160466000210161816000F0C4
:1006B0003DFC20B9064800F054FC08B070BD012094
:1006C000FBE700000010024040420F000010004015
:1006D000E000002008B500BF1448806940F0010028
:1006E000124988610846806900F00100009000BF4F
:1006F00000BF00BF0846C06940F08050C86108468E
:10070000C06900F08050009000BF00BF00220F21A0
:10071000901E00F01CF800BF0549486820F0E0601A
:1007200040F00070486000BF08BD000000100240AB
:100730000000014000BF00F01F020121914042096A
:10074000920002F1E022C2F8001100BF70472DE9CB
:10075000F05F80460D461646002700F031FE074642
:1007600039462A46334601F00700C0F1070ABAF1BC
:10077000040F02D94FF0040A01E0C0F1070AD14684
:1007800000F1040ABAF1070F02D24FF0000A01E0AB
:10079000A0F1030AD4464FF0010A0AFA09FAAAF1B5
:1007A000010A0AEA020A0AFA0CFA4FF0010B0BFAE4
:1007B0000CFBABF1010B0BEA030B4AEA0B042146DD
:1007C000404600F005FEBDE8F09F000000BF00F0CD
:1007D0000702064B19684FF6FF031940044B0B4301
:1007E00043EA0221014B196000BF70470CED00E0A5
:1007F0000000FA0570B504460D4600266D480068F5
:1008000000F00700A8420ED26A48006820F00700F6
:100810002843684908600846006800F00700A842BD
:1008200001D0012070BD207800F0020002281DD107
:10083000207800F00400042805D15F48406840F4A7
:10084000E0605D494860207800F00800082805D184
:100850005948406840F460505749486056484068DD
:1008600020F0F000A168084353494860207800F068
:10087000010000285DD06068012806D14E4800685C
:1008800000F4003090B90120CCE76068022806D15E
:100890004948006800F0007040B90120C2E74648AE
:1008A000006800F0020008B90120BBE74248406838
:1008B00020F00300616808433F494860FFF7A0FE4D
:1008C00006466068012810D108E0FFF799FE801BFA
:1008D00041F28831884201D90320A3E736484068B5
:1008E00000F00C000428F0D123E06068022810D149
:1008F00008E0FFF785FE801B41F28831884201D96C
:1009000003208FE72C48406800F00C000828F0D145
:100910000FE008E0FFF774FE801B41F28831884247
:1009200001D903207EE72448406800F00C0000282D
:10093000F0D12048006800F00700A8420ED91D48F9
:10094000006820F0070028431A490860084600683C
:1009500000F00700A84201D0012063E7207800F0F2
:100960000400042807D11448406820F4E060E168DE
:10097000084311494860207800F00800082808D191
:100980000D48406820F46050216940EAC1000A49DE
:10099000486000F05FF808494968C1F30311074A4D
:1009A000515CC840064908600020FFF74FFE002058
:1009B00038E700000020024000100240A025000897
:1009C0003C0000200F2202600D4A526802F0030230
:1009D00042600B4A526802F0F0028260084A526894
:1009E00002F4E062C260064A526802F46052D20821
:1009F0000261044A126802F007020A6070470000B0
:100A000000100240002002400148006870470000CA
:100A10003C00002000B5FFF7F7FF04494968C1F327
:100A20000221034A515CC84000BD00000010024092
:100A3000B025000800B5FFF7E7FF04494968C1F396
:100A4000C221034A515CC84000BD000000100240B2
:100A5000B0250008F0B585B00FF26C0C9CE8E010F2
:100A600001A8A0E8E0101CA52D6800950021002237
:100A7000002300240020194D696801F00C05F5B130
:100A8000042D02D0082D19D101E0154819E001AD5F
:100A9000C1F38346AC5D01F4803555B10F4D6D68EF
:100AA000C5F340451DF805200D4D6543B5FBF2F338
:100AB00002E00C4D04FB05F3184602E000BF0848B5
:100AC00000BF00BF05B0F0BD02030405060708091A
:100AD0000A0B0C0D0E0F1010010200000010024056
:100AE00000127A0000093D00F8B504460025207880
:100AF00000F00100002878D0F848406800F00C00B1
:100B000004280CD0F548406800F00C00082811D1EA
:100B1000F248406800F48030B0F5803F0AD1EF48D9
:100B2000006800F4003000285FD0606800285CD1C5
:100B30000120F8BD00BF6068B0F5803F06D1E748EE
:100B4000006840F48030E549086028E0606858B9E2
:100B5000E248006820F48030E049086008460068F8
:100B600020F4802008601AE06068B0F5A02F0BD157
:100B7000DA48006840F48020D849086008460068D8
:100B800040F4803008600AE0D448006820F48030E7
:100B9000D24908600846006820F48020086000BF41
:100BA000606888B1FFF72CFD054606E0FFF728FDD9
:100BB000401B642801D90320BBE7C848006800F443
:100BC00000300028F2D010E0FFF71AFD054606E0DD
:100BD000FFF716FD401B642801D90320A9E7BF4891
:100BE000006800F400300028F2D1207800F0020004
:100BF000022857D1B948406800F00C0050B1B748FE
:100C0000406800F00C00082818D1B448406800F48F
:100C1000803098B9B148006800F0020020B1206926
:100C2000012801D0012084E7AC48006820F0F800DA
:100C3000616940EAC100A949086033E02069E8B170
:100C40000120A7490860FFF7DBFC054606E0FFF737
:100C5000D7FC401B022801D903206AE79F4800689F
:100C600000F002000028F2D09C48006820F0F80054
:100C7000616940EAC1009949086013E00020984981
:100C80000860FFF7BDFC054606E0FFF7B9FC401B16
:100C9000022801D903204CE79048006800F00200C8
:100CA0000028F2D1207800F0080008282DD1A06992
:100CB000B8B101208B490860FFF7A2FC054606E0A9
:100CC000FFF79EFC401B022801D9032031E783482F
:100CD000406A00F002000028F2D0012000F08CFBF6
:100CE00013E000207F490860FFF78AFC054606E014
:100CF000FFF786FC401B022801D9032019E777483B
:100D0000406A00F002000028F2D1207800F00400D0
:100D1000042873D100267148C06900F0805070B972
:100D200000BF6E48C06940F080506C49C8610846F9
:100D3000C06900F08050009000BF00BF01266A48E3
:100D4000006800F48070B0B96748006840F48070B3
:100D500065490860FFF754FC054606E0FFF750FCC4
:100D6000401B642801D90320E3E65F48006800F4D3
:100D700080700028F2D000BFE068012806D15748F3
:100D8000006A40F001005549086227E0E06858B960
:100D90005248006A20F00100504908620846006A83
:100DA00020F00400086219E0E06805280BD14B48E8
:100DB000006A40F00400494908620846006A40F0B1
:100DC000010008620AE04548006A20F0010043493A
:100DD00008620846006A20F00400086200BFE0686C
:100DE000A0B1FFF70DFC054609E0FFF709FC401B29
:100DF00041F28831884202D903209AE622E037483E
:100E0000006A00F002000028EFD012E0FFF7F8FBC4
:100E1000054608E0FFF7F4FB401B41F288318842A9
:100E200001D9032085E62D48006A00F00200002861
:100E3000F0D1012E05D12948C06920F08050274902
:100E4000C86100BFE069C8B32448406800F00C00E6
:100E5000082860D0E069022848D1002020490866AF
:100E6000FFF7CEFB054606E0FFF7CAFB401B022852
:100E700001D903205DE61948006800F000700028E1
:100E8000F2D1206AB0F5803F07D11448406820F4C1
:100E90000030A168084311494860D4E908010843BB
:100EA0000E49496821F4741108430C494860012037
:100EB0000B490866FFF7A4FB054607E02DE0FFF7A6
:100EC0009FFB401B022801D9032032E6034800683B
:100ED00000F000700028F2D01FE000000010024077
:100EE00000004242800442420070004000200C4951
:100EF0000866FFF785FB054606E0FFF781FB401B10
:100F0000022801D9032014E60648006800F00070AA
:100F10000028F2D101E001200BE6002009E60000E4
:100F200000004242001002407047704710B504466E
:100F30000CB9012010BD94F83D0028B9002084F8B8
:100F40003C00204600F00CF8022084F83D00211DF2
:100F5000206800F007FB012084F83D000020E9E74D
:100F6000704701460868C06840F001000A68D06018
:100F70000868006840F001000A68106000207047AF
:100F8000704710B5044620680069C0F34000D8B12E
:100F90002068C068C0F34000B0B16FF00200216863
:100FA0000861012020772068806900F0030018B1F3
:100FB0002046FFF7E5FF05E0204600F0ADF82046AB
:100FC00000F0ABF80020207720680069C0F38000B3
:100FD000D8B12068C068C0F38000B0B16FF00400E1
:100FE00021680861022020772068806900F4407041
:100FF00018B12046FFF7C4FF05E0204600F08CF84A
:10100000204600F08AF80020207720680069C0F3AD
:10101000C000D8B12068C068C0F3C000B0B16FF0A4
:10102000080021680861042020772068C06900F06A
:10103000030018B12046FFF7A3FF05E0204600F0AB
:101040006BF8204600F069F80020207720680069DE
:10105000C0F30010D8B12068C068C0F30010B0B170
:101060006FF0100021680861082020772068C069AF
:1010700000F4407018B12046FFF782FF05E02046DB
:1010800000F04AF8204600F048F800202077206859
:10109000006900F0010058B12068C06800F001004C
:1010A00030B16FF0010021680861204600F036F889
:1010B00020680069C0F3C01058B12068C068C0F350
:1010C000C01030B16FF08000216808612046FFF742
:1010D0002BFF20680069C0F3801058B12068C068F9
:1010E000C0F3801030B16FF04000216808612046E5
:1010F00000F020F820680069C0F3401058B1206863
:10110000C068C0F3401030B16FF020002168086162
:101110002046FFF70AFF10BD7047704710B5044620
:1011200003492068884201D1FFF770FA10BD000022
:1011300000100040704710B504460CB9012010BDE6
:10114000A06900B100E000BF94F8390028B9002080
:1011500084F83800204600F027F8242084F839006D
:101160002068C06820F400502168C860204600F064
:1011700045FA2068006920F49040216808612068E1
:10118000406920F02A00216848612068C06840F466
:1011900000502168C8600020E063202084F83900F6
:1011A00084F83A000020CAE710B586B00446002053
:1011B00002900390049005901A49206888422ED12D
:1011C00000BF1948806940F480401749886108468B
:1011D000806900F48040019000BF00BF00BF084656
:1011E000806940F0040088610846806900F00400CE
:1011F000019000BF00BF4815029002200390032019
:10120000059002A90948FFF751F84FF48060029059
:1012100000200390049002A90448FFF747F806B0A5
:1012200010BD0000003801400010024000080140DD
:101230002DE9F84304460D4616461F464FF00009B7
:1012400094F8390020285CD105B116B90120BDE819
:10125000F88300BF94F83800012801D10220F6E796
:10126000012084F8380000BF0020E063212084F8CA
:101270003900FFF7C5F98146A684E6842BE0E08CAF
:10128000401EE084A068B0F5805F16D14B46002276
:1012900080212046009700F095FA08B10320D6E798
:1012A000A846B8F80000C0F308002168486020692B
:1012B00008B9AD1C0FE06D1C0DE04B4600228021EB
:1012C0002046009700F07EFA08B10320BFE715F82A
:1012D000010B21684860E08C0028D0D14B460022E9
:1012E00040212046009700F06DFA08B10320AEE7D8
:1012F000202084F8390000BF002084F8380000BFA7
:10130000A5E70220A3E700BFFEE7000000B585B017
:101310000020019002900390049000BF164880695D
:1013200040F00400144988610846806900F0040018
:10133000009000BF00BF00BF0846806940F0080071
:1013400088610846806900F00800009000BF00BF77
:10135000012220210948FFF74DF9202001900120AA
:101360000290002003900220049001A90348FEF798
:101370009DFF05B000BD000000100240000C0140C0
:1013800010B50B480B4908604FF4E130486000216C
:1013900008488160C16001610C21416100218161C7
:1013A000C161FFF7C8FE08B1FEF76BFF10BD00007A
:1013B00000380140A000002000BFFEE77047000099
:1013C00002480068C0F30220704700000CED00E006
:1013D00010B5002807DA0A07140E054A00F00F03BB
:1013E0001B1FD45403E00A07130E024A135410BD06
:1013F00018ED00E000E400E008B508490968C908F4
:101400004FF47A72B1FBF2F14143009100BF00BF8B
:1014100000994A1E00920029F9D108BD3C00002025
:1014200000BF0848FEF710FF84B24FF0FF3322469A
:1014300004490548FFF7FCFE4FF47A7000F045FAC6
:10144000EFE7000008000020A000002000BF0848CF
:10145000FEF7FAFE84B24FF0FF33224604490548F6
:10146000FFF7E6FE4FF47A7000F02FFAEFE7000086
:101470001C000020A000002010B500BF502080F309
:101480001188BFF34F8FBFF36F8F00BF00F04EFF87
:1014900018B14FF080500449086000BF002080F36D
:1014A000118800BF10BD000004ED00E000B58FB052
:1014B000282105A8FEF7BDFE14216846FEF7B9FEF7
:1014C000022005900120099010200A9000200C9025
:1014D00005A8FFF709FB08B1FEF7D3FE0F20009027
:1014E0000020019002900390049000216846FFF7CD
:1014F00081F908B1FEF7C5FE0FB000BD11480068C4
:1015000040F001000F490860084640680E49084055
:101510000C494860084600680C49084009490860C1
:101520000846006820F4802008600846406820F4DF
:10153000FE0048604FF41F008860C803044908603B
:1015400070470000001002400000FFF8FFFFF6FEA9
:1015500008ED00E010B50248FFF713FD10BD0000D4
:10156000E0000020002202681F4B98420ED01F4B63
:1015700098420BD0B0F1804F08D01D4B984205D057
:101580001C4B984202D01C4B984203D122F07002AF
:101590004B681A43144B98420ED0144B98420BD010
:1015A000B0F1804F08D0124B984205D0114B9842B1
:1015B00002D0114B984203D122F44072CB681A43F7
:1015C00022F080024B691A4302608B68C3620B6889
:1015D0008362054B984202D0044B984201D10B69BB
:1015E0000363012343617047002C01400034014034
:1015F0000004004000080040000C00402DE9F041CC
:10160000044600252068006920F44050E168084342
:10161000216808612169A06808436169084305439E
:101620002068C06841F20C61884328432168C86083
:101630002068406920F44070A1690843216848612E
:101640005F49206888425CD1FFF7F4F900EBC001E4
:1016500001EB001061688900B0FBF1F6FFF7EAF9D1
:1016600000EBC00101EB001061688900B0FBF1F0F4
:101670006421B0FBF1F000EBC00101EB0010A6EB20
:101680008000322101EB00106421B0FBF1F000F08A
:10169000F006FFF7CFF900EBC00101EB0010616825
:1016A0008900B0FBF1F06421B0FBF1F006EB00160D
:1016B000FFF7C0F900EBC00101EB00106168890081
:1016C000B0FBF1F7FFF7B6F900EBC00101EB00103A
:1016D00061688900B0FBF1F06421B0FBF1F000EB30
:1016E000C00101EB0010A7EB8000322101EB0010DC
:1016F0006421B0FBF1F000F00F00304421688860F5
:101700005BE0FFF787F900EBC00101EB00106168B7
:101710008900B0FBF1F6FFF77DF900EBC00101EBAA
:10172000001061688900B0FBF1F06421B0FBF1F0BA
:1017300000EBC00101EB0010A6EB8000322101EBB1
:1017400000106421B0FBF1F000F0F006FFF762F941
:1017500000EBC00101EB001061688900B0FBF1F003
:101760006421B0FBF1F006EB0016FFF753F900EB34
:10177000C00101EB001061688900B0FBF1F7FFF7D1
:1017800049F900EBC00101EB001061688900B0FB72
:10179000F1F06421B0FBF1F000EBC00101EB0010AF
:1017A000A7EB8000322101EB00106421B0FBF1F0C7
:1017B00000F00F00304421688860BDE8F08100002F
:1017C000003801402DE9F04104460D461746984681
:1017D000069E21E0701CF8B12EB1FEF711FFA0EBC0
:1017E0000800B04218D92068C06820F4D070216881
:1017F000C8602068406920F001002168486120200D
:1018000084F8390084F83A0000BF002084F83800DA
:1018100000BF0320BDE8F081206800682840A8428E
:1018200001D1012000E00020B842D3D00020F1E730
:1018300000BFFEE702E008C8121F08C1002AFAD163
:1018400070477047002001E001C1121F002AFBD140
:10185000704700008AB0FEF7E5FEFFF727FEFFF7AE
:1018600055FDFFF78DFD1422104905A8FEF7C8FCB1
:10187000002105A800F03AF80D49086014220B4930
:1018800014316846FEF7BCFC0021684600F02EF8D3
:101890000849086000F025F806E020210648FEF718
:1018A000A5FE6420FEF7EEFCF7E7000078250008AF
:1018B0000000002004000020000C01400146002030
:1018C000842901D0CA1C1044704770B504462546CF
:1018D0000DB1294600E00121084600F0E7FB002099
:1018E00070BD10B500F010FC002010BDFEB5044620
:1018F0000D46B4F90800FFF7E1FF064602A8CDE95E
:101900000060238A9AB22B46D4E9001000F0DEFC76
:10191000012801D00020FEBD0298FCE72DE9F0412E
:1019200005460E461C4807681C480068001D00F06C
:10193000D1FA50B91948006890F82C10012088405D
:1019400017490968814316480160681C38B936B1E7
:1019500012480168091D134800F0FAFA1AE07C19D0
:101960000E4800684460BC4207D20C480168091D5B
:101970000D48006800F0D2FA0CE008480168091D23
:101980000A48006800F0CAFA09480068844201D297
:1019900007480460BDE8F0815400002040000020AA
:1019A00058000020FC0100204800002044000020D6
:1019B0007000002010B5044600F0D6FA23480068F5
:1019C000401C224908602248006840B92048046051
:1019D0000846006801280DD100F02AF90AE01D48E8
:1019E000006838B91A480068C06AE16A884201D8BC
:1019F0001748046018480068401C1749086094F8AC
:101A00002C100120884015490968084313490860D3
:101A1000E16A01EB8101124A02EB8100211D00F015
:101A200097FA00F0CBFA0B48006868B108480068E4
:101A3000C06AE16A884207D24FF0805009490860C5
:101A4000BFF34F8FBFF36F8F10BD00005000002019
:101A5000400000205C0000206C00002058000020A6
:101A60002001002004ED00E070B523E000F090FBC1
:101A70001348006808B9012000E00020054600F086
:101A8000F9FCBDB900F070FA0D48C068C468201DAB
:101A900000F020FA0B480068401E0A4908600A4816
:101AA0000068401E0849086000F088FA204600F0EF
:101AB0000DF800BF044800680028D7D170BD0000B1
:101AC000E8010020500000204C00002010B5044622
:101AD000206B00F091FA204600F08EFA10BD000055
:101AE00030B54FF44063174800F007042CB1C01D17
:101AF00020F00700134C041B1B1B0246124C2260F3
:101B00000024114D6C60D018083820F007000F4CED
:101B1000206000240D4D2D686C600C4D2D682C60EC
:101B20001146441A4C60094C24680C60084D4C68FE
:101B30002C60084D4C682C604FF00044064D2C6022
:101B400030BD0000100200207C0000208400002036
:101B50008C000020880000209000002000BFFFF7CC
:101B600083FF064800680128F9D94FF080500449E6
:101B70000860BFF34F8FBFF36F8FF0E720010020A5
:101B800004ED00E02DE9FF5F81460F469246DDE956
:101B90000E6B109CAAF10100216B01EB800828F06C
:101BA000070808F0070008B9012000E0002050B93C
:101BB00000BF502080F31188BFF34F8FBFF36F8FAA
:101BC00000BF00BFFEE7002507E0795D04F13400A7
:101BD0004155785D00B902E06D1C102DF5D300BFB2
:101BE000002143200155072E00D30626E6626664D5
:101BF0000020A064201D00F08EF904F1180000F010
:101C00008AF92461C6F10700A06164620020E064E3
:101C100084F8500049464046039A00F049F9206094
:101C2000BBF1000F01D0CBF80040BDE8FF9F0000E2
:101C300010B5002407E004EB84010F4A02EB810099
:101C400000F05CF9641C072CF5D30C4800F056F941
:101C50000B4800F053F90B4800F050F90A4800F027
:101C60004DF90A4800F04AF9044809490860044857
:101C70000849086010BD000020010020AC010020D0
:101C8000C0010020D4010020E8010020FC01002058
:101C9000440000204800002010B50146164800E02E
:101CA000006803688B42FBD30246436813448B42AF
:101CB00004D143684C682344436001460A464B689C
:101CC00013440468A34211D10C4C03682468A34256
:101CD00008D04B680468646823444B6003681B6841
:101CE0000B6005E0054B1B680B6001E003680B60AF
:101CF000884200D0016010BD7C00002084000020DC
:101D00000A490968096809B9012100E0002121B1E7
:101D10004FF0FF31064A116006E004490968C968BE
:101D2000C868034A41681160704700004400002001
:101D3000700000200E480068401C08B9012000E037
:101D4000002050B900BF502080F31188BFF34F8F9F
:101D5000BFF36F8F00BF00BFFEE700BF502080F3CE
:101D60001188BFF34F8FBFF36F8F00BF00BFFEE737
:101D7000940000202DE9F04104464FF0000800F0E7
:101D800007FA4648006808B9FFF7AAFE4448006809
:101D9000204000286BD1D4B1083404F00700B0B162
:101DA00004F00700C0F10800044404F0070008B97B
:101DB000012000E0002050B900BF502080F31188BE
:101DC000BFF34F8FBFF36F8F00BF00BFFEE7002C44
:101DD0004DD034480068844249D8334E30460568B7
:101DE00001E02E462D686868A04202D228680028CB
:101DF000F7D12A480068854239D0306800F10808D8
:101E0000286830606868001B102819D92F1907F05E
:101E1000070008B9012000E0002050B900BF5020A1
:101E200080F31188BFF34F8FBFF36F8F00BF00BFE8
:101E3000FEE76868001B78606C603846FFF72CFF8F
:101E4000184968680968081A164908600846006851
:101E500016490968884203D212480068134908608D
:101E60000F4968680968084368600020286000F02E
:101E700001FB08F0070008B9012000E0002050B97C
:101E800000BF502080F31188BFF34F8FBFF36F8FD7
:101E900000BF00BFFEE74046BDE8F081840000209F
:101EA00090000020880000207C0000208C00002092
:101EB000001F4FF080730360001F21F001030360D7
:101EC000001F034B03601438026020387047000085
:101ED000351D000801460A69D1E901309860D1E951
:101EE000010358605068884201D188685060002022
:101EF00008611068401E10601068704700F108010A
:101F000041604FF0FF31816000F10801C160016163
:101F100000210160704700210161704710B5024641
:101F20000B685C1C0CB9106907E002F1080000E0C6
:101F30004068446824689C42FAD944684C604C6804
:101F4000A160886041600A611468641C146010BD5F
:101F500042684A6093688B60936859609160086139
:101F600003685B1C0360704700BF502080F311883A
:101F7000BFF34F8FBFF36F8F00BF0E480068401C48
:101F80000C49086008460068012812D10A48006818
:101F9000C0B208B9012000E0002050B900BF5020B5
:101FA00080F31188BFF34F8FBFF36F8F00BF00BF67
:101FB000FEE770479400002004ED00E00D48006843
:101FC00050B900BF502080F31188BFF34F8FBFF38B
:101FD0006F8F00BF00BFFEE706480068401E05493E
:101FE00008600846006820B9002080F3118800BF0F
:101FF00000BF70479400002070B506463546002E9D
:102000003FD0083D2C461F4960680968084008B168
:10201000012000E0002050B900BF502080F311885B
:10202000BFF34F8FBFF36F8F00BF00BFFEE7206885
:1020300008B9012000E0002050B900BF502080F313
:102040001188BFF34F8FBFF36F8F00BF00BFFEE754
:102050000C4960680968084098B1206888B9094946
:10206000606809688843606000F092F8064960681B
:1020700009680844044908602046FFF70DFE00F097
:10208000F9F970BD90000020880000200648006823
:102090004FF47A71B0FBF1F0401E4FF0E02148613F
:1020A00007200861704700003C00002070B504461E
:1020B0000025D4B11248006808B9012000E00020D2
:1020C00050B900BF502080F31188BFF34F8FBFF38A
:1020D0006F8F00BF00BFFEE700F05AF800212046D6
:1020E000FFF71CFC00F0C6F905463DB94FF08050E3
:1020F00004490860BFF34F8FBFF36F8F70BD0000BE
:102100007800002004ED00E01CB51A4800210B46C1
:102110008022CDE9001018A1194800F0D7F8044634
:10212000012C15D100BF502080F31188BFF34F8FD1
:10213000BFF36F8F00BF4FF0FF30124908600120DE
:102140001149086000201149086000F06FF810E0A4
:10215000601C08B1012000E0002050B900BF5020F1
:1021600080F31188BFF34F8FBFF36F8F00BF00BFA5
:10217000FEE71CBD7400002049444C4500000000EF
:102180005D1B0008700000205C000020540000204F
:1021900002480068401C0149086070477800002030
:1021A0001D48006818B101201C49086032E0002079
:1021B0001A4908601A480068B0FA80F0C0F11F019F
:1021C00001EB8100174A52F8200008B1012000E01D
:1021D000002050B900BF502080F31188BFF34F8F0B
:1021E000BFF36F8F00BF00BFFEE701EB81020D4B15
:1021F00003EB820042685268426000F108024368C3
:10220000934202D14268526842604268D268064BEB
:102210001A6000BF704700007800002064000020B2
:102220005800002020010020400000201CB522485A
:10223000014609780191FF21024611700146097893
:1022400000919DF8001001F050011C4A1170072107
:102250001B4A116009E01A490968491E184A1160B1
:102260009DF800104906090E00919DF8001001F03C
:1022700080018029EFD0124909680902104A1160D3
:102280001146098801F4E06111600B4A019911704F
:102290000C48006840F470000A490860084600686D
:1022A00040F070400860FFF7F1FE0020064908602A
:1022B000FDF75AFF00201CBD00E400E0980000205C
:1022C0009C00002020ED00E0940000202DE9FF4F4D
:1022D00085B0804689461746DDE912ABB800FFF7A6
:1022E00049FD064656B15420FFF744FD04460CB1A3
:1022F000266304E03046FFF77FFE00E000247CB157
:102300000020CDE900ABCDE902403A4649464046BF
:10231000089BFFF737FC2046FFF74CFB012501E047
:102320004FF0FF35284609B0BDE8F08F2DE9F041A8
:102330004FF0000844480068002877D143480068FF
:10234000451C4248056015BB41480068006808B953
:10235000012000E0002050B900BF502080F3118818
:10236000BFF34F8FBFF36F8F00BF00BFFEE738484A
:1023700007683848006836490860364807603648BC
:102380000068401C34490860FFF7BAFC00BF3348BE
:10239000006885423CD300BF2D480068006808B93A
:1023A000012000E0002020B14FF0FF302B490860F1
:1023B0002DE027480068C068C4686668B54202D24C
:1023C0002648066023E0201DFFF784FDA06A18B1AF
:1023D00004F11800FFF77EFD94F82C1001208840CE
:1023E0001F49096808431E490860E16A01EB810141
:1023F0001C4A02EB8100211DFFF7AAFD1A49E06A81
:102400000968C96A8842C7D34FF00108C4E700BF12
:1024100015480068C06A00EB8000124951F820009E
:10242000012801D94FF0010805E0FFE70F480068D7
:10243000401C0E4908600E48006808B14FF00108C2
:102440004046BDE8F08100007800002054000020E4
:102450004400002048000020680000207000002098
:1024600058000020200100204000002060000020D3
:102470006400002070B5002400263648006850B97A
:1024800000BF502080F31188BFF34F8FBFF36F8FD1
:1024900000BF00BFFEE7FFF767FD2E480068401E43
:1024A0002C4908600846006800284FD12A48006877
:1024B00000284BD024E02948C068C46804F1180003
:1024C000FFF708FD201DFFF705FD94F82C100120F3
:1024D000884023490968084321490860E16A01EB03
:1024E0008101204A02EB8100211DFFF731FD1E49C9
:1024F000E06A0968C96A884202D301201B49086062
:102500001648006808B9012000E000200028D2D059
:102510000CB1FFF7F5FB1648056865B100BFFFF782
:1025200005FF10B10120114908606D1E002DF6D184
:1025300000200F4908600D48006838B101263007B7
:102540000C490860BFF34F8FBFF36F8FFFF736FD65
:10255000304670BD7800002050000020D4010020DB
:1025600058000020200100204000002064000020CE
:102570006000002004ED00E0B825000821140008E8
:10258000000000000000000080000000C0250008DE
:102590004D140008FFFF0000000000008000000054
:1025A0000000000000000000010203040607080903
:1025B0000000000001020304626C696E6B303100A0
:1025C000626C696E6B303200E82500080000002064
:1025D000A00000003418000888260008A000002091
:1025E0007011000044180008000000000000000006
:1025F00048656C6C6F2066726F6D205461736B2040
:10260000310D0A0048656C6C6F2066726F6D205446
:1026100061736B20320D0A00000000001000000002
:102620000100000000A24A040000000000000000B9
:10263000000000000000000000000000000000009A
:10264000000000000000000000000000000000008A
:10265000000000000000000000000000000000007A
:10266000000000000000000000000000000000006A
:10267000000000000000000000000000AAAAAAAAB2
:08268000000000000000000052
:0400000508000131BD
:00000001FF
